{
  "contractName": "BidKaroNa",
  "abi": [
    {
      "inputs": [],
      "payable": false,
      "stateMutability": "nonpayable",
      "type": "constructor"
    },
    {
      "anonymous": false,
      "inputs": [
        {
          "indexed": false,
          "internalType": "string",
          "name": "log",
          "type": "string"
        }
      ],
      "name": "LogFailure",
      "type": "event"
    },
    {
      "anonymous": false,
      "inputs": [
        {
          "indexed": false,
          "internalType": "uint256",
          "name": "auctionId",
          "type": "uint256"
        },
        {
          "indexed": false,
          "internalType": "string",
          "name": "title",
          "type": "string"
        },
        {
          "indexed": false,
          "internalType": "address",
          "name": "assetAddress",
          "type": "address"
        },
        {
          "indexed": false,
          "internalType": "uint256",
          "name": "reservePrice",
          "type": "uint256"
        },
        {
          "indexed": false,
          "internalType": "uint256",
          "name": "deadline",
          "type": "uint256"
        }
      ],
      "name": "auctionCreated",
      "type": "event"
    },
    {
      "anonymous": false,
      "inputs": [
        {
          "indexed": false,
          "internalType": "uint256",
          "name": "actionId",
          "type": "uint256"
        },
        {
          "indexed": false,
          "internalType": "string",
          "name": "newOwner",
          "type": "string"
        },
        {
          "indexed": false,
          "internalType": "address",
          "name": "newOwnerAddress",
          "type": "address"
        }
      ],
      "name": "auctionEnded",
      "type": "event"
    },
    {
      "anonymous": false,
      "inputs": [
        {
          "indexed": false,
          "internalType": "uint256",
          "name": "auctionId",
          "type": "uint256"
        },
        {
          "indexed": false,
          "internalType": "address",
          "name": "bidder",
          "type": "address"
        },
        {
          "indexed": false,
          "internalType": "uint256",
          "name": "bidAmount",
          "type": "uint256"
        }
      ],
      "name": "bidPlaced",
      "type": "event"
    },
    {
      "anonymous": false,
      "inputs": [
        {
          "indexed": false,
          "internalType": "address",
          "name": "bidder",
          "type": "address"
        },
        {
          "indexed": false,
          "internalType": "uint256",
          "name": "auctionId",
          "type": "uint256"
        },
        {
          "indexed": false,
          "internalType": "uint256",
          "name": "refundAmout",
          "type": "uint256"
        }
      ],
      "name": "withdrewRefund",
      "type": "event"
    },
    {
      "constant": true,
      "inputs": [],
      "name": "owner",
      "outputs": [
        {
          "internalType": "address",
          "name": "",
          "type": "address"
        }
      ],
      "payable": false,
      "stateMutability": "view",
      "type": "function"
    },
    {
      "constant": true,
      "inputs": [
        {
          "internalType": "address",
          "name": "_party",
          "type": "address"
        },
        {
          "internalType": "address",
          "name": "_assetAddress",
          "type": "address"
        }
      ],
      "name": "partyOwnsAsset",
      "outputs": [
        {
          "internalType": "bool",
          "name": "",
          "type": "bool"
        }
      ],
      "payable": false,
      "stateMutability": "view",
      "type": "function"
    },
    {
      "constant": false,
      "inputs": [
        {
          "internalType": "address",
          "name": "_assetAddress",
          "type": "address"
        },
        {
          "internalType": "uint256",
          "name": "_reservePrice",
          "type": "uint256"
        },
        {
          "internalType": "uint256",
          "name": "_deadline",
          "type": "uint256"
        },
        {
          "internalType": "string",
          "name": "_title",
          "type": "string"
        }
      ],
      "name": "createAuction",
      "outputs": [
        {
          "internalType": "int256",
          "name": "",
          "type": "int256"
        }
      ],
      "payable": false,
      "stateMutability": "nonpayable",
      "type": "function"
    },
    {
      "constant": false,
      "inputs": [
        {
          "internalType": "uint256",
          "name": "auctionId",
          "type": "uint256"
        }
      ],
      "name": "endAuction",
      "outputs": [
        {
          "internalType": "bool",
          "name": "",
          "type": "bool"
        }
      ],
      "payable": false,
      "stateMutability": "nonpayable",
      "type": "function"
    },
    {
      "constant": false,
      "inputs": [
        {
          "internalType": "uint256",
          "name": "auctionId",
          "type": "uint256"
        }
      ],
      "name": "withdrawRefund",
      "outputs": [
        {
          "internalType": "bool",
          "name": "",
          "type": "bool"
        }
      ],
      "payable": false,
      "stateMutability": "nonpayable",
      "type": "function"
    },
    {
      "constant": false,
      "inputs": [
        {
          "internalType": "uint256",
          "name": "auctionId",
          "type": "uint256"
        }
      ],
      "name": "placeBid",
      "outputs": [
        {
          "internalType": "bool",
          "name": "",
          "type": "bool"
        }
      ],
      "payable": true,
      "stateMutability": "payable",
      "type": "function"
    },
    {
      "constant": true,
      "inputs": [],
      "name": "getAuctionsLength",
      "outputs": [
        {
          "internalType": "uint256",
          "name": "",
          "type": "uint256"
        }
      ],
      "payable": false,
      "stateMutability": "view",
      "type": "function"
    },
    {
      "constant": true,
      "inputs": [],
      "name": "getAuctionBalance",
      "outputs": [
        {
          "internalType": "uint256",
          "name": "",
          "type": "uint256"
        }
      ],
      "payable": false,
      "stateMutability": "view",
      "type": "function"
    },
    {
      "constant": true,
      "inputs": [
        {
          "internalType": "uint256",
          "name": "auctionId",
          "type": "uint256"
        }
      ],
      "name": "getAuctionDetails",
      "outputs": [
        {
          "internalType": "address",
          "name": "",
          "type": "address"
        },
        {
          "internalType": "address",
          "name": "",
          "type": "address"
        },
        {
          "internalType": "string",
          "name": "",
          "type": "string"
        },
        {
          "internalType": "uint256",
          "name": "",
          "type": "uint256"
        },
        {
          "internalType": "uint256",
          "name": "",
          "type": "uint256"
        },
        {
          "internalType": "bool",
          "name": "",
          "type": "bool"
        }
      ],
      "payable": false,
      "stateMutability": "view",
      "type": "function"
    },
    {
      "constant": true,
      "inputs": [
        {
          "internalType": "uint256",
          "name": "auctionId",
          "type": "uint256"
        },
        {
          "internalType": "address",
          "name": "bidder",
          "type": "address"
        }
      ],
      "name": "getRefundDetails",
      "outputs": [
        {
          "internalType": "bool",
          "name": "",
          "type": "bool"
        },
        {
          "internalType": "uint256",
          "name": "",
          "type": "uint256"
        }
      ],
      "payable": false,
      "stateMutability": "view",
      "type": "function"
    }
  ],
  "bytecode": "0x608060405234801561001057600080fd5b50336000806101000a81548173ffffffffffffffffffffffffffffffffffffffff021916908373ffffffffffffffffffffffffffffffffffffffff160217905550612772806100606000396000f3fe6080604052600436106100915760003560e01c80639979ef45116100595780639979ef451461032b5780639d15349514610371578063b9a2de3a146103c4578063dbe3500714610417578063f20e5e351461044257610091565b80630ff2f6521461009657806325a35e73146101105780633407489b1461013b5780638647c2831461024b5780638da5cb5b146102d4575b600080fd5b3480156100a257600080fd5b506100ef600480360360408110156100b957600080fd5b8101908080359060200190929190803573ffffffffffffffffffffffffffffffffffffffff169060200190929190505050610575565b60405180831515151581526020018281526020019250505060405180910390f35b34801561011c57600080fd5b506101256106ca565b6040518082815260200191505060405180910390f35b34801561014757600080fd5b506102356004803603608081101561015e57600080fd5b81019080803573ffffffffffffffffffffffffffffffffffffffff1690602001909291908035906020019092919080359060200190929190803590602001906401000000008111156101af57600080fd5b8201836020820111156101c157600080fd5b803590602001918460018302840111640100000000831117156101e357600080fd5b91908080601f016020809104026020016040519081016040528093929190818152602001838380828437600081840152601f19601f8201169050808301925050505050505091929192905050506106d2565b6040518082815260200191505060405180910390f35b34801561025757600080fd5b506102ba6004803603604081101561026e57600080fd5b81019080803573ffffffffffffffffffffffffffffffffffffffff169060200190929190803573ffffffffffffffffffffffffffffffffffffffff169060200190929190505050610c84565b604051808215151515815260200191505060405180910390f35b3480156102e057600080fd5b506102e9610d42565b604051808273ffffffffffffffffffffffffffffffffffffffff1673ffffffffffffffffffffffffffffffffffffffff16815260200191505060405180910390f35b6103576004803603602081101561034157600080fd5b8101908080359060200190929190505050610d67565b604051808215151515815260200191505060405180910390f35b34801561037d57600080fd5b506103aa6004803603602081101561039457600080fd5b810190808035906020019092919050505061122f565b604051808215151515815260200191505060405180910390f35b3480156103d057600080fd5b506103fd600480360360208110156103e757600080fd5b8101908080359060200190929190505050611518565b604051808215151515815260200191505060405180910390f35b34801561042357600080fd5b5061042c6121e8565b6040518082815260200191505060405180910390f35b34801561044e57600080fd5b5061047b6004803603602081101561046557600080fd5b81019080803590602001909291905050506121f5565b604051808773ffffffffffffffffffffffffffffffffffffffff1673ffffffffffffffffffffffffffffffffffffffff1681526020018673ffffffffffffffffffffffffffffffffffffffff1673ffffffffffffffffffffffffffffffffffffffff1681526020018060200185815260200184815260200183151515158152602001828103825286818151815260200191508051906020019080838360005b8381101561053557808201518184015260208101905061051a565b50505050905090810190601f1680156105625780820380516001836020036101000a031916815260200191505b5097505050505050505060405180910390f35b600080600080905060008090505b6001868154811061059057fe5b906000526020600020906009020160080180549050811015610649578473ffffffffffffffffffffffffffffffffffffffff16600187815481106105d057fe5b906000526020600020906009020160080182815481106105ec57fe5b9060005260206000200160009054906101000a900473ffffffffffffffffffffffffffffffffffffffff1673ffffffffffffffffffffffffffffffffffffffff16141561063c5760019150610649565b8080600101915050610583565b5080156106b757600180868154811061065e57fe5b906000526020600020906009020160060160008673ffffffffffffffffffffffffffffffffffffffff1673ffffffffffffffffffffffffffffffffffffffff1681526020019081526020016000205492509250506106c3565b60008080905092509250505b9250929050565b600047905090565b60006106de3386610c84565b610772577fa2db52a45d71264723caeac03c235d51bb30cff5e1ac71c97a5842ec94fbb6af60405180806020018281038252601f8152602001807f53656c6c657220646f6573206e6f74206f776e20746869732061737365742e0081525060200191505060405180910390a17fffffffffffffffffffffffffffffffffffffffffffffffffffffffffffffffff9050610c7c565b824210610809577fa2db52a45d71264723caeac03c235d51bb30cff5e1ac71c97a5842ec94fbb6af6040518080602001828103825260118152602001807f496e76616c696420646561646c696e652e00000000000000000000000000000081525060200191505060405180910390a17fffffffffffffffffffffffffffffffffffffffffffffffffffffffffffffffff9050610c7c565b600260008673ffffffffffffffffffffffffffffffffffffffff1673ffffffffffffffffffffffffffffffffffffffff16815260200190815260200160002060009054906101000a900460ff16156108eb577fa2db52a45d71264723caeac03c235d51bb30cff5e1ac71c97a5842ec94fbb6af60405180806020018281038252601b8152602001807f4974656d20697320616c7265616479206f6e2061756374696f6e2e000000000081525060200191505060405180910390a17fffffffffffffffffffffffffffffffffffffffffffffffffffffffffffffffff9050610c7c565b60008590508073ffffffffffffffffffffffffffffffffffffffff166313af4035306040518263ffffffff1660e01b8152600401808273ffffffffffffffffffffffffffffffffffffffff1673ffffffffffffffffffffffffffffffffffffffff168152602001915050602060405180830381600087803b15801561096f57600080fd5b505af1158015610983573d6000803e3d6000fd5b505050506040513d602081101561099957600080fd5b8101908080519060200190929190505050506000600180548091906001016109c191906123cf565b905085600182815481106109d157fe5b90600052602060002090600902016001018190555033600182815481106109f457fe5b906000526020600020906009020160020160006101000a81548173ffffffffffffffffffffffffffffffffffffffff021916908373ffffffffffffffffffffffffffffffffffffffff1602179055508660018281548110610a5157fe5b906000526020600020906009020160030160006101000a81548173ffffffffffffffffffffffffffffffffffffffff021916908373ffffffffffffffffffffffffffffffffffffffff1602179055508460018281548110610aae57fe5b9060005260206000209060090201600401819055508360018281548110610ad157fe5b90600052602060002090600902016005019080519060200190610af5929190612401565b50600060018281548110610b0557fe5b906000526020600020906009020160070160006101000a81548160ff02191690836001811115610b3157fe5b02179055506001600260008973ffffffffffffffffffffffffffffffffffffffff1673ffffffffffffffffffffffffffffffffffffffff16815260200190815260200160002060006101000a81548160ff0219169083151502179055507f5edaf2fc193dca02c0473446fb8c635a03baa17f00df9289b170151207063d4d818589898960405180868152602001806020018573ffffffffffffffffffffffffffffffffffffffff1673ffffffffffffffffffffffffffffffffffffffff168152602001848152602001838152602001828103825286818151815260200191508051906020019080838360005b83811015610c38578082015181840152602081019050610c1d565b50505050905090810190601f168015610c655780820380516001836020036101000a031916815260200191505b50965050505050505060405180910390a180925050505b949350505050565b6000808290508373ffffffffffffffffffffffffffffffffffffffff168173ffffffffffffffffffffffffffffffffffffffff1663893d20e86040518163ffffffff1660e01b815260040160206040518083038186803b158015610ce757600080fd5b505afa158015610cfb573d6000803e3d6000fd5b505050506040513d6020811015610d1157600080fd5b810190808051906020019092919050505073ffffffffffffffffffffffffffffffffffffffff161491505092915050565b6000809054906101000a900473ffffffffffffffffffffffffffffffffffffffff1681565b6000600180811115610d7557fe5b60018381548110610d8257fe5b906000526020600020906009020160070160009054906101000a900460ff166001811115610dac57fe5b1415610e23577fa2db52a45d71264723caeac03c235d51bb30cff5e1ac71c97a5842ec94fbb6af6040518080602001828103825260138152602001807f41756374696f6e206e6f74206163746976652e0000000000000000000000000081525060200191505060405180910390a16000905061122a565b60018281548110610e3057fe5b906000526020600020906009020160010154341015610e9d577fa2db52a45d71264723caeac03c235d51bb30cff5e1ac71c97a5842ec94fbb6af60405180806020018281038252602381526020018061271b6023913960400191505060405180910390a16000905061122a565b600060018381548110610eac57fe5b90600052602060002090600902016000018054809190600101610ecf9190612481565b90503360018481548110610edf57fe5b90600052602060002090600902016000018281548110610efb57fe5b906000526020600020906003020160000160006101000a81548173ffffffffffffffffffffffffffffffffffffffff021916908373ffffffffffffffffffffffffffffffffffffffff1602179055503460018481548110610f5857fe5b90600052602060002090600902016000018281548110610f7457fe5b9060005260206000209060030201600101819055504260018481548110610f9757fe5b90600052602060002090600902016000018281548110610fb357fe5b9060005260206000209060030201600201819055503460018481548110610fd657fe5b906000526020600020906009020160060160003373ffffffffffffffffffffffffffffffffffffffff1673ffffffffffffffffffffffffffffffffffffffff16815260200190815260200160002060008282540192505081905550600080905060008090505b6001858154811061104957fe5b906000526020600020906009020160080180549050811015611102573373ffffffffffffffffffffffffffffffffffffffff166001868154811061108957fe5b906000526020600020906009020160080182815481106110a557fe5b9060005260206000200160009054906101000a900473ffffffffffffffffffffffffffffffffffffffff1673ffffffffffffffffffffffffffffffffffffffff1614156110f55760019150611102565b808060010191505061103c565b50806111b05760006001858154811061111757fe5b9060005260206000209060090201600801805480919060010161113a91906124b3565b9050336001868154811061114a57fe5b9060005260206000209060090201600801828154811061116657fe5b9060005260206000200160006101000a81548173ffffffffffffffffffffffffffffffffffffffff021916908373ffffffffffffffffffffffffffffffffffffffff160217905550505b7fb709f01451ed0783e7600e0c31d1df63da03b66b3caf7cddde880f0774332ba6843334604051808481526020018373ffffffffffffffffffffffffffffffffffffffff1673ffffffffffffffffffffffffffffffffffffffff168152602001828152602001935050505060405180910390a16001925050505b919050565b600080600181111561123d57fe5b6001838154811061124a57fe5b906000526020600020906009020160070160009054906101000a900460ff16600181111561127457fe5b14156112ce577fa2db52a45d71264723caeac03c235d51bb30cff5e1ac71c97a5842ec94fbb6af6040518080602001828103825260278152602001806126a96027913960400191505060405180910390a160009050611513565b6000600183815481106112dd57fe5b906000526020600020906009020160060160003373ffffffffffffffffffffffffffffffffffffffff1673ffffffffffffffffffffffffffffffffffffffff16815260200190815260200160002054905060006001848154811061133d57fe5b906000526020600020906009020160060160003373ffffffffffffffffffffffffffffffffffffffff1673ffffffffffffffffffffffffffffffffffffffff168152602001908152602001600020819055503373ffffffffffffffffffffffffffffffffffffffff166108fc829081150290604051600060405180830381858888f1935050505061149a577fa2db52a45d71264723caeac03c235d51bb30cff5e1ac71c97a5842ec94fbb6af60405180806020018281038252601a8152602001807f556e61626c6520746f207472616e73666572206574686572732e00000000000081525060200191505060405180910390a1806001848154811061143e57fe5b906000526020600020906009020160060160003373ffffffffffffffffffffffffffffffffffffffff1673ffffffffffffffffffffffffffffffffffffffff168152602001908152602001600020819055506000915050611513565b7f6dd3cbb553d1e94c30e31a098224d12f9ec17c2851199e90d844e96007640f76338483604051808473ffffffffffffffffffffffffffffffffffffffff1673ffffffffffffffffffffffffffffffffffffffff168152602001838152602001828152602001935050505060405180910390a160019150505b919050565b60006001828154811061152757fe5b906000526020600020906009020160040154421015611594577fa2db52a45d71264723caeac03c235d51bb30cff5e1ac71c97a5842ec94fbb6af6040518080602001828103825260278152602001806126d06027913960400191505060405180910390a1600090506121e3565b6001808111156115a057fe5b600183815481106115ad57fe5b906000526020600020906009020160070160009054906101000a900460ff1660018111156115d757fe5b1415611631577fa2db52a45d71264723caeac03c235d51bb30cff5e1ac71c97a5842ec94fbb6af6040518080602001828103825260248152602001806126f76024913960400191505060405180910390a1600090506121e3565b600180838154811061163f57fe5b906000526020600020906009020160070160006101000a81548160ff0219169083600181111561166b57fe5b021790555060006001838154811061167f57fe5b906000526020600020906009020160030160009054906101000a900473ffffffffffffffffffffffffffffffffffffffff1690506060600080600186815481106116c557fe5b9060005260206000209060090201600001805490501415611857578273ffffffffffffffffffffffffffffffffffffffff166313af40356001878154811061170957fe5b906000526020600020906009020160020160009054906101000a900473ffffffffffffffffffffffffffffffffffffffff166040518263ffffffff1660e01b8152600401808273ffffffffffffffffffffffffffffffffffffffff1673ffffffffffffffffffffffffffffffffffffffff168152602001915050602060405180830381600087803b15801561179d57600080fd5b505af11580156117b1573d6000803e3d6000fd5b505050506040513d60208110156117c757600080fd5b8101908080519060200190929190505050506040518060400160405280600681526020017f73656c6c6572000000000000000000000000000000000000000000000000000081525091506001858154811061181e57fe5b906000526020600020906009020160020160009054906101000a900473ffffffffffffffffffffffffffffffffffffffff169050611bc2565b6000806000905060008090505b6001888154811061187157fe5b9060005260206000209060090201600801805490508110156119b85760006001898154811061189c57fe5b906000526020600020906009020160080182815481106118b857fe5b9060005260206000200160009054906101000a900473ffffffffffffffffffffffffffffffffffffffff1690508260018a815481106118f357fe5b906000526020600020906009020160060160008373ffffffffffffffffffffffffffffffffffffffff1673ffffffffffffffffffffffffffffffffffffffff1681526020019081526020016000205411156119aa576001898154811061195557fe5b906000526020600020906009020160060160008273ffffffffffffffffffffffffffffffffffffffff1673ffffffffffffffffffffffffffffffffffffffff1681526020019081526020016000205492508093505b508080600101915050611864565b508473ffffffffffffffffffffffffffffffffffffffff166313af4035836040518263ffffffff1660e01b8152600401808273ffffffffffffffffffffffffffffffffffffffff1673ffffffffffffffffffffffffffffffffffffffff168152602001915050602060405180830381600087803b158015611a3857600080fd5b505af1158015611a4c573d6000803e3d6000fd5b505050506040513d6020811015611a6257600080fd5b8101908080519060200190929190505050508060018881548110611a8257fe5b906000526020600020906009020160060160008473ffffffffffffffffffffffffffffffffffffffff1673ffffffffffffffffffffffffffffffffffffffff168152602001908152602001600020600082825403925050819055508060018881548110611aeb57fe5b9060005260206000209060090201600601600060018a81548110611b0b57fe5b906000526020600020906009020160020160009054906101000a900473ffffffffffffffffffffffffffffffffffffffff1673ffffffffffffffffffffffffffffffffffffffff1673ffffffffffffffffffffffffffffffffffffffff168152602001908152602001600020600082825401925050819055506040518060400160405280600681526020017f6269646465720000000000000000000000000000000000000000000000000000815250935081925050505b60006002600060018881548110611bd557fe5b906000526020600020906009020160030160009054906101000a900473ffffffffffffffffffffffffffffffffffffffff1673ffffffffffffffffffffffffffffffffffffffff1673ffffffffffffffffffffffffffffffffffffffff16815260200190815260200160002060006101000a81548160ff0219169083151502179055507e4f13d1ff23af5f7b0b0fc3d6dfb6c2a65f05a49ffc9b2f9ac89d04ca60d8d585838360405180848152602001806020018373ffffffffffffffffffffffffffffffffffffffff1673ffffffffffffffffffffffffffffffffffffffff168152602001828103825284818151815260200191508051906020019080838360005b83811015611cf3578082015181840152602081019050611cd8565b50505050905090810190601f168015611d205780820380516001836020036101000a031916815260200191505b5094505050505060405180910390a1600080905060008090505b60018781548110611d4757fe5b906000526020600020906009020160080180549050811015611fa357600060018881548110611d7257fe5b90600052602060002090600902016008018281548110611d8e57fe5b9060005260206000200160009054906101000a900473ffffffffffffffffffffffffffffffffffffffff169050600060018981548110611dca57fe5b906000526020600020906009020160060160008373ffffffffffffffffffffffffffffffffffffffff1673ffffffffffffffffffffffffffffffffffffffff168152602001908152602001600020549050600060018a81548110611e2a57fe5b906000526020600020906009020160060160008473ffffffffffffffffffffffffffffffffffffffff1673ffffffffffffffffffffffffffffffffffffffff168152602001908152602001600020819055508173ffffffffffffffffffffffffffffffffffffffff166108fc829081150290604051600060405180830381858888f19350505050611f20578060018a81548110611ec357fe5b906000526020600020906009020160060160008473ffffffffffffffffffffffffffffffffffffffff1673ffffffffffffffffffffffffffffffffffffffff16815260200190815260200160002081905550600184019350611f94565b7f6dd3cbb553d1e94c30e31a098224d12f9ec17c2851199e90d844e96007640f76828a83604051808473ffffffffffffffffffffffffffffffffffffffff1673ffffffffffffffffffffffffffffffffffffffff168152602001838152602001828152602001935050505060405180910390a15b50508080600101915050611d3a565b50600060018781548110611fb357fe5b906000526020600020906009020160020160009054906101000a900473ffffffffffffffffffffffffffffffffffffffff169050600060018881548110611ff657fe5b906000526020600020906009020160060160008373ffffffffffffffffffffffffffffffffffffffff1673ffffffffffffffffffffffffffffffffffffffff16815260200190815260200160002054905060006001898154811061205657fe5b906000526020600020906009020160060160008473ffffffffffffffffffffffffffffffffffffffff1673ffffffffffffffffffffffffffffffffffffffff168152602001908152602001600020819055508173ffffffffffffffffffffffffffffffffffffffff166108fc829081150290604051600060405180830381858888f1935050505061214c5780600189815481106120ef57fe5b906000526020600020906009020160060160008473ffffffffffffffffffffffffffffffffffffffff1673ffffffffffffffffffffffffffffffffffffffff168152602001908152602001600020819055506001830192506121c0565b7f6dd3cbb553d1e94c30e31a098224d12f9ec17c2851199e90d844e96007640f76828983604051808473ffffffffffffffffffffffffffffffffffffffff1673ffffffffffffffffffffffffffffffffffffffff168152602001838152602001828152602001935050505060405180910390a15b60008311156121d857600096505050505050506121e3565b600196505050505050505b919050565b6000600180549050905090565b600080606060008060006001878154811061220c57fe5b906000526020600020906009020160020160009054906101000a900473ffffffffffffffffffffffffffffffffffffffff166001888154811061224b57fe5b906000526020600020906009020160030160009054906101000a900473ffffffffffffffffffffffffffffffffffffffff166001898154811061228a57fe5b906000526020600020906009020160050160018a815481106122a857fe5b90600052602060002090600902016004015460018b815481106122c757fe5b906000526020600020906009020160010154600060018111156122e657fe5b60018d815481106122f357fe5b906000526020600020906009020160070160009054906101000a900460ff16600181111561231d57fe5b14838054600181600116156101000203166002900480601f0160208091040260200160405190810160405280929190818152602001828054600181600116156101000203166002900480156123b35780601f10612388576101008083540402835291602001916123b3565b820191906000526020600020905b81548152906001019060200180831161239657829003601f168201915b5050505050935095509550955095509550955091939550919395565b8154818355818111156123fc576009028160090283600052602060002091820191016123fb91906124df565b5b505050565b828054600181600116156101000203166002900490600052602060002090601f016020900481019282601f1061244257805160ff1916838001178555612470565b82800160010185558215612470579182015b8281111561246f578251825591602001919060010190612454565b5b50905061247d91906125a0565b5090565b8154818355818111156124ae576003028160030283600052602060002091820191016124ad91906125c5565b5b505050565b8154818355818111156124da578183600052602060002091820191016124d991906125a0565b5b505050565b61259d91905b8082111561259957600080820160006124fe919061261b565b60018201600090556002820160006101000a81549073ffffffffffffffffffffffffffffffffffffffff02191690556003820160006101000a81549073ffffffffffffffffffffffffffffffffffffffff0219169055600482016000905560058201600061256c919061263f565b6007820160006101000a81549060ff02191690556008820160006125909190612687565b506009016124e5565b5090565b90565b6125c291905b808211156125be5760008160009055506001016125a6565b5090565b90565b61261891905b8082111561261457600080820160006101000a81549073ffffffffffffffffffffffffffffffffffffffff021916905560018201600090556002820160009055506003016125cb565b5090565b90565b508054600082556003029060005260206000209081019061263c91906125c5565b50565b50805460018160011615610100020316600290046000825580601f106126655750612684565b601f01602090049060005260206000209081019061268391906125a0565b5b50565b50805460008255906000526020600020908101906126a591906125a0565b5056fe43616e6e6f742077697468647261772066726f6d20616e206163746976652061756374696f6e2e43616e6e6f7420656e642061756374696f6e206265666f72652074686520646561646c696e652e43616e6e6f7420656e6420616e20616c726561647920656e6465642061756374696f6e2e416d6f756e74206c657373207468616e2074686520726573657276652070726963652ea265627a7a7231582007b27d0c57c7c47dc93ad1f910b2b745a98e8f883721060ce4eb9962535f6e8c64736f6c63430005100032",
  "source": "/* \nAuthors: vaibhav.garg:anchit.gupta:preet.thakkar\nDate: 8th October\n\nThe main contract containing all the business logic\nfor the application, also provides the necessary \nmethods for the front-end\n*/\n\npragma solidity 0.5.16;\n\nimport \"./Asset.sol\";\n\ncontract BidKaroNa {\n  \n  // Struct definitions\n  enum AuctionStatus {Active, Inactive}\n\n  struct Bid {\n    address bidder;\n    uint256 amount;\n    uint256 timeStamp;\n  }\n\n  struct Auction {\n    Bid[] bids;\n    uint256 reservePrice;\n    address seller;\n    address assetAddress;\n    uint256 deadline;\n    string title;\n    mapping(address => uint256) refunds;\n    AuctionStatus status;\n    address[] bidderAddresses;\n  }\n\n  // State variables\n  address public owner;\n  Auction[] auctions;\n  mapping(address => bool) activeAssets;\n\n  // Modifiers\n  modifier onlySeller(uint256 auctionId) {\n    require(auctions[auctionId].seller == msg.sender);\n    _;\n  }\n\n  // Events\n  event LogFailure(string log);\n  event auctionCreated(uint256 auctionId, string title, address assetAddress, uint256 reservePrice, uint256 deadline);\n  event auctionEnded(uint256 actionId, string newOwner, address newOwnerAddress);\n  event withdrewRefund(address bidder, uint256 auctionId, uint256 refundAmout);\n  event bidPlaced(uint256 auctionId, address bidder, uint256 bidAmount);\n\n  // Methods\n  constructor() public {\n    owner = msg.sender;\n  }\n\n  function partyOwnsAsset(address _party, address _assetAddress) public view returns (bool) {\n    Asset assetContract = Asset(_assetAddress);\n    return assetContract.getOwner() == _party;\n  }\n\n  function createAuction(\n                        address _assetAddress,\n                        uint256 _reservePrice,\n                        uint256 _deadline,\n                        string memory _title) public returns (int256) {\n    \n    // Check if the seller owns the asset\n    if (!partyOwnsAsset(msg.sender, _assetAddress)) {\n      emit LogFailure(\"Seller does not own this asset.\");\n      return -1;\n    }\n    \n    // Check if given deadline is in the future\n    if (block.timestamp >= _deadline) {\n      emit LogFailure(\"Invalid deadline.\");\n      return -1;\n    }\n\n    // Check if asset is not already on auction\n    if (activeAssets[_assetAddress]) {\n      emit LogFailure(\"Item is already on auction.\");\n      return -1;\n    }\n\n    // changing the ownership of the asset\n    Asset asset = Asset(_assetAddress);\n    asset.setOwner(address(this));\n\n    // Creating the auction and activating it\n    uint256 auctionId = auctions.length++;\n    auctions[auctionId].reservePrice = _reservePrice;\n    auctions[auctionId].seller = msg.sender;\n    auctions[auctionId].assetAddress = _assetAddress;\n    auctions[auctionId].deadline = _deadline;\n    auctions[auctionId].title = _title;\n    auctions[auctionId].status = AuctionStatus.Active;\n    activeAssets[_assetAddress] = true;\n\n    emit auctionCreated(auctionId, _title, _assetAddress, _reservePrice, _deadline);\n    return int256(auctionId);\n  }\n\n  function endAuction(uint256 auctionId) public returns (bool) {\n\n    // The deadline should be gone\n    if (block.timestamp < auctions[auctionId].deadline) {\n      emit LogFailure(\"Cannot end auction before the deadline.\"); \n      return false;\n    }\n\n    // Auction needs to be active, so that it is ended only once\n    if (auctions[auctionId].status == AuctionStatus.Inactive) {\n      emit LogFailure(\"Cannot end an already ended auction.\"); \n      return false;\n    }\n\n    auctions[auctionId].status = AuctionStatus.Inactive;\n    Asset assetContract = Asset(auctions[auctionId].assetAddress);\n\n    string memory newOwner;\n    address newOwnerAddress;\n\n    if(auctions[auctionId].bids.length == 0) { // no valid bidds were placed\n      // Tranferring ownership of asset back to the seller\n      assetContract.setOwner(auctions[auctionId].seller);\n      newOwner = \"seller\";\n      newOwnerAddress = auctions[auctionId].seller;\n    }\n    else{\n      // Finding index corresponding to the highest bid\n      address highestBidder;\n      uint256 highestBid = 0;\n      for(uint256 i=0; i<auctions[auctionId].bidderAddresses.length; i++) {\n        address currBidder = auctions[auctionId].bidderAddresses[i];\n        if(auctions[auctionId].refunds[currBidder] > highestBid) {\n          highestBid = auctions[auctionId].refunds[currBidder];\n          highestBidder = currBidder;\n        }\n      }\n\n      // Transferring the ownership to the highest bidder\n      assetContract.setOwner(highestBidder);\n\n      // Transferring the highest bid amount to the seller\n      auctions[auctionId].refunds[highestBidder] -= highestBid;\n      auctions[auctionId].refunds[auctions[auctionId].seller] += highestBid;\n      \n      newOwner = \"bidder\";\n      newOwnerAddress = highestBidder;\n    }\n\n    // Marking the asset on auction as inactive\n    activeAssets[auctions[auctionId].assetAddress] = false;\n\n    emit auctionEnded(auctionId, newOwner, newOwnerAddress);\n    \n    // Process all refunds related to this auction\n    uint256 err = 0;\n\n    // All the bidders refund\n    for(uint256 i=0; i<auctions[auctionId].bidderAddresses.length; i++) {\n      address payable adr = address(uint160(auctions[auctionId].bidderAddresses[i]));\n      uint256 refund = auctions[auctionId].refunds[adr];\n      auctions[auctionId].refunds[adr] = 0;\n      if(!adr.send(refund)){ // Failed refund\n          auctions[auctionId].refunds[adr] = refund;\n          err += 1;\n      }\n      else{ // Successful refund\n          emit withdrewRefund(adr, auctionId, refund);\n      }\n    }\n    // Seller refund\n    address payable adr = address(uint160(auctions[auctionId].seller));\n    uint256 refund = auctions[auctionId].refunds[adr];\n    auctions[auctionId].refunds[adr] = 0;\n    if(!adr.send(refund)){ // Failed refund\n        auctions[auctionId].refunds[adr] = refund;\n        err += 1;\n    }\n    else{ // Successful refund\n        emit withdrewRefund(adr, auctionId, refund);\n    }\n\n    if(err > 0){ // At least one refund failed\n        return false;\n    }\n    else{\n        return true;\n    }\n\n  }\n\n  function withdrawRefund(uint256 auctionId) public returns (bool) {\n\n    // Cannot withdraw from an active auction\n    if(auctions[auctionId].status == AuctionStatus.Active) {\n      emit LogFailure(\"Cannot withdraw from an active auction.\");\n      return false;\n    }\n    \n    uint256 refund = auctions[auctionId].refunds[msg.sender];\n    auctions[auctionId].refunds[msg.sender] = 0;\n    if (!msg.sender.send(refund)){\n      emit LogFailure(\"Unable to transfer ethers.\");\n      auctions[auctionId].refunds[msg.sender] = refund;\n      return false;\n    }\n    \n    emit withdrewRefund(msg.sender, auctionId, refund);\n    return true;\n  }\n\n  function placeBid(uint256 auctionId) public payable returns (bool) {\n    \n    // inactive auction\n    if (auctions[auctionId].status == AuctionStatus.Inactive) {\n      emit LogFailure(\"Auction not active.\");\n      return false;\n    }\n\n    // bid should be greater than reserve price\n    if (msg.value < auctions[auctionId].reservePrice) {\n      emit LogFailure(\"Amount less than the reserve price.\");\n      return false;\n    }\n\n    // Adding the bid\n    uint256 bidId = auctions[auctionId].bids.length++;\n    auctions[auctionId].bids[bidId].bidder = msg.sender;\n    auctions[auctionId].bids[bidId].amount = msg.value;\n    auctions[auctionId].bids[bidId].timeStamp = block.timestamp;\n\n    // Tracking the money deposited\n    auctions[auctionId].refunds[msg.sender] += msg.value;\n\n    // Adding to the bidders array\n    bool alreadyVoted = false; \n    for(uint256 i=0; i<auctions[auctionId].bidderAddresses.length; i++) {\n      if(auctions[auctionId].bidderAddresses[i] == msg.sender) {\n        alreadyVoted = true;\n        break;\n      }\n    }\n    if(!alreadyVoted) {\n      uint256 bidderAddressId = auctions[auctionId].bidderAddresses.length++;\n      auctions[auctionId].bidderAddresses[bidderAddressId] = msg.sender;\n    }\n\n    emit bidPlaced(auctionId, msg.sender, msg.value);\n    return true;\n  }\n\n  function getAuctionsLength() public view returns(uint256) {\n    return auctions.length;\n  }\n  \n  function getAuctionBalance() public view returns(uint256) {\n      return address(this).balance;\n  }\n\n  function getAuctionDetails(uint256 auctionId) public view returns(\n    address, address, string memory, uint256, uint256, bool\n    ) {\n\n    return (\n      auctions[auctionId].seller,\n      auctions[auctionId].assetAddress,\n      auctions[auctionId].title,\n      auctions[auctionId].deadline,\n      auctions[auctionId].reservePrice,\n      auctions[auctionId].status == AuctionStatus.Active\n    );\n  }\n\n  function getRefundDetails(uint256 auctionId, address bidder) public view returns(\n    bool, uint256\n  ) {\n\n    // Checking if \"bidder\" is a valid address\n    bool bidderPresent = false;\n    for(uint256 i=0; i<auctions[auctionId].bidderAddresses.length; i++) {\n      if(auctions[auctionId].bidderAddresses[i] == bidder) {\n        bidderPresent = true;\n        break;\n      }\n    }\n    if (bidderPresent) {\n      return (true, auctions[auctionId].refunds[bidder]);\n    }\n    else {\n      return (false, 0);\n    }\n  }\n}\n",
  "sourcePath": "C:\\Users\\silpa sreejith\\Desktop\\alfin final\\E Tender\\contracts\\BidKaroNa.sol",
  "compiler": {
    "name": "solc",
    "version": "0.5.16+commit.9c3226ce.Emscripten.clang"
  },
  "schemaVersion": "3.4.4",
  "updatedAt": "2022-07-05T07:28:01.952Z",
  "devdoc": {
    "methods": {}
  },
  "userdoc": {
    "methods": {}
  }
}